:100000000C9446000C9465000C9465000C946500FB
:100010000C9465000C9465000C9465000C946500CC
:100020000C9465000C9465000C9465000C946500BC
:100030000C9465000C9465000C9465000C94DE0033
:100040000C9403010C9465000C9465000C946500FD
:100050000C9465000C9465000C9465000C9465008C
:100060000C9465000C9465000C9465000C9465007C
:100070000C9465000C9465000C9465000C9465006C
:100080000C9465000C9465000C94650011241FBE4F
:10009000CFEFD0E1DEBFCDBF11E0A0E0B1E0EEECEC
:1000A000F2E000E00BBF02C007900D92AA31B10749
:1000B000D9F721E0AAE1B1E001C01D92A232B20756
:1000C000E1F70E9419010C9465010C94000094EA78
:1000D000909374009091740097FFFCCF9EE49093EE
:1000E000730094E8909374009091740097FFFCCF94
:1000F0008093730084E8809374008091740087FF7C
:10010000FCCF84E9809374000895CF93C0911D01C2
:10011000CB7F8C2F0E9467008C2F84600E94670029
:10012000C0931D018C2F0E9467008FEF98E101970B
:10013000F1F700C00000CF910895CF93DF93C82F4F
:1001400090911D019F70807F982B90931D010E94BC
:10015000850080911D018F7090E1C99FE0011124FD
:100160008C2B80931D01DF91CF910C9485000F9310
:100170001F93CF938C01C0E02C2F30E0F801E20FE9
:10018000F31F8081482F082E000C550B24173507CC
:1001900024F0CF911F910F91089590911D019D7FA3
:1001A000916090931D010E949D00CF5FE5CF9091DB
:1001B0001D019C7F90931D010C949D001F920F9236
:1001C0000FB60F9211248F939F93AF93BF9380919B
:1001D0001E0190911F01A0912001B0912101019673
:1001E000A11DB11D80931E0190931F01A0932001BA
:1001F000B0932101BF91AF919F918F910F900FBE4E
:100200000F901F9018951F920F920FB60F92112406
:100210008F9310921C0110921B0183B78A7F83BFBA
:1002200081E080931A018F910F900FBE0F901F9065
:10023000189581B3836081BB88E4809370002FEFB1
:1002400089EF90E0215080409040E1F700C000002D
:1002500083E00E94D7008FE19EE40197F1F700C090
:10026000000083E00E94D7008FE19EE40197F1F740
:1002700000C0000083E00E94D70082E00E94D70007
:1002800088E20E94D70088E00E94D70081E00E94A7
:10029000D7008CE00E94D70086E00E94D7008091B2
:1002A0001D01886080931D010E94670080E80E9404
:1002B000D70080E091E00E94B70080EC0E94D70058
:0E02C0008AE091E00E94B700FFCFF894FFCFD4
:1002CE0048454C4C4F204932430048454C4C4F203A
:0A02DE0034626974204C43440000B0
:00000001FF
